S01700004763634170706C69636174696F6E332E7372656359
S11300000C9434000C943E000C943E000C943E007E
S11300100C943E000C943E000C943E000C943E0064
S11300200C943E000C943E000C943E000C943E0054
S11300300C943E000C943E000C943E000C943E0044
S11300400C943E000C943E000C943E000C943E0034
S11300500C943E000C943E000C943E000C943E0024
S11300600C943E000C943E0011241FBECFEFD8E048
S1130070DEBFCDBF0E9476000C94CF010C9400002B
S11300801092C50083E38093C4001092C00088E1FD
S11300908093C10086E08093C2000895E0ECF0E014
S11300A0908195FFFDCF8093C60008958E3008F0AF
S11300B08E5087708064ECE7F0E0808380818062FA
S11300C08083EAE7F0E080818760808380818068B4
S11300D08083808180648083808186FDFDCF8091D0
S11300E078002091790090E0922B08950E944000BE
S11300F02FEF83ED90E3215080409040E1F700C062
S1130100000080E00E945600BC01990F880B990BF7
S11301100E94D60020E030E040EA50E40E943A0118
S113012020E030E040E85AE30E943A010E94A50032
S1130130862F0E944E002FEF83ED90E321508040E4
S11301409040E1F700C00000DCCF0E94190188F064
S11301509F5798F0B92F9927B751B0F0E1F0660F87
S1130160771F881F991F1AF0BA95C9F714C0B130C8
S113017091F00E943301B1E008950C943301672F8C
S1130180782F8827B85F39F0B93FCCF386957795F7
S11301906795B395D9F73EF49095809570956195E0
S11301A07F4F8F4F9F4F0895E89409C097FB3EF40B
S11301B090958095709561957F4F8F4F9F4F9923B0
S11301C0A9F0F92F96E9BB279395F695879577952E
S11301D06795B795F111F8CFFAF4BB0F11F460FFEE
S11301E01BC06F5F7F4F8F4F9F4F16C0882311F046
S11301F096E911C0772321F09EE8872F762F05C05A
S1130200662371F096E8862F70E060E02AF09A95F4
S1130210660F771F881FDAF7880F9695879597F9E9
S1130220089557FD9058440F551F59F05F3F71F0E2
S11302304795880F97FB991F61F09F3F79F0879549
S11302400895121613061406551FF2CF4695F1DFD2
S113025008C0161617061806991FF1CF8695710562
S1130260610508940895E894BB2766277727CB0196
S113027097F908950E944D010C94BE010E94B001AB
S113028038F00E94B70120F0952311F00C94A701D7
S11302900C94AD0111240C9434010E94110170F3EB
S11302A0959FC1F3950F50E0551F629FF001729F17
S11302B0BB27F00DB11D639FAA27F00DB11DAA1F26
S11302C0649F6627B00DA11D661F829F2227B00D73
S11302D0A11D621F739FB00DA11D621F839FA00DFE
S11302E0611D221F749F3327A00D611D231F849F4E
S11302F0600D211D822F762F6A2F11249F575040A5
S11303009AF0F1F088234AF0EE0FFF1FBB1F661F1F
S1130310771F881F91505040A9F79E3F510580F0E8
S11303200C94A7010C9434015F3FE4F3983ED4F39A
S1130330869577956795B795F795E7959F5FC1F78C
S1130340FE2B880F911D9695879597F9089597F937
S11303509F6780E870E060E008959FEF80EC089567
S113036000240A9416161706180609060895002490
S11303700A9412161306140605060895092E03940A
S1130380000C11F4882352F0BB0F40F4BF2B11F47E
S113039060FF04C06F5F7F4F8F4F9F4F0895F894A5
S10503A0FFCF89
S9030000FC
